:1000000008308A00002800000A108A100A118207AE
:100010003134343437342A343234353438343034AB
:1000200033343634393423342034203420342034EB
:10003000412A45180000412AA6190001412AAB2196
:10004000D321D31EA223D3262200412AAB21CD23C4
:10005000C61E3100412AAB21CE26C91E32163116EA
:100060003016301630004E346138A036613AA03573
:10007000E830751D00002A002A002A002A002A0004
:100080002A00C33A6110E430A0366F00CD37691002
:10009000F630EF100001CD3074106B34E13AA03926
:1000A000E1340001CD376910E2306E106E346138F2
:1000B0002036E13400014E346138A036613AA03573
:1000C000E830751D000120002000200020002000E5
:1000D0002000C33A6110E43020326F3767004E349D
:1000E0006138A036613AA035E830751D0001CD3089
:1000F00074106B34E13AA0317500CD3074106B345C
:10010000E13AA036EF340001CC30EE183A00D3309B
:100110006910ED3074106B34E13A00014E346138EF
:10012000A036613AA035E8307500CD3074106B34DC
:10013000E13AA036EF340001CC306E193A00C437F2
:100140006910ED3074106B34E13A0001743461379A
:100150006810E337EE3300014E346138A036613A5F
:10016000A035E8307500C4376910ED3074106B3479
:10017000E13A00017434613A2031E13400014E3437
:100180006138A036613AA035E83075003F30840010
:10019000831300080319D9280630F800F701F70B7C
:1001A000CF28F80BCE287B30F700F70BD528800B33
:1001B000CC2808004518DE280612DF28061683160C
:1001C00006128312C518E6288612E72886168316BB
:1001D000861283124519EE280613EF280617831698
:1001E00006138312C519F6288613F7288617831677
:1001F0008613000083128816831688120230F700D7
:10020000F70B002903290000831288128316881235
:1002100083120800C6018316061600308312061AE0
:100220000130C6048316861600308312861A013008
:10023000F7000310F70D7708C60483160617003081
:100240008312061B0130F700F70DF70DFC30F705A0
:100250007708C6048316861700308312861B013088
:10026000F700F70DF70DF70DF830F7057708C6041E
:100270004608F800080083168812081388138312B2
:100280000813831608130616861606178617831298
:100290008817831688130000831288168316881225
:1002A000000083120A217808C5008812831688127C
:1002B000000083128816831688125E295F290000C9
:1002C00083120A217808C400881283168812061245
:1002D0008612061386138312450EF700F030F705D9
:1002E00077084404F8007808C400C41F79298316ED
:1002F0004329C208031D7E2908137F290817831686
:1003000008130000831288138316881300008312D9
:100310008812831688128312430EC4000F30C4055E
:100320004408C500DA2043080F39C400C500DA20AC
:1003300008002830BB000C30BC000130BD00063086
:10034000BE008812831688128312081383160813BE
:1003500083128813831688130612861206138613D7
:100360008812081388130F308312BF00C620013093
:10037000BA003A08033C031CC5290330C500DA2043
:100380000530BF00C620BA0AB9290230C500DA20FC
:100390000530BF00C620BA013A08033C031CDC2923
:1003A0003B303A07840083130008BF00C2013F08B6
:1003B000C3003B21BA0ACC298A150A122F283F0B09
:1003C000E229E5294030C000E629C00101303E02A3
:1003D000C00740088038C100C2014108C3003B216A
:1003E00008003D08073A0319FF290B3A0319042AAC
:1003F000063A03190C2A023A0319122A172A013065
:10040000BE00BF00DF211C2AC2010130C3003B2116
:100410000230BF00C6201C2A0130BE000230BF00DF
:10042000DF211C2AC2011030C3003B211C2A0130ED
:10043000C2003D08C3003B2108000B08BA008B1323
:10044000831603178C170C1400000000831203138B
:10045000BA1B8B1703170C087F390319712A031372
:10046000BA0003170D080313BB0003170F0803138B
:10047000BC003A08BD00F1213B0803178D000313AF
:100480003C0803178F0003130B08BD008B13831662
:1004900003178C170C140000000083120313BD1BFC
:1004A0008B1703170C0D0E0D7F390319712A0313D7
:1004B000BA0003170D080313BB0003170F0803133B
:1004C000BC003A08BD00F1213B0803178D0003135F
:1004D0003C0803178F008D0A03198F0A03131D2A86
:1004E000031703130800BA01FF30BB00BA013A0832
:1004F000033C031CF12A3A08BC0083160510831242
:100500000514831685108312851483160511831232
:10051000051583168511831285158316051283121E
:100520000516831685128312851683160910831209
:1005300009148316891083128914BC08031DA42A88
:1005400083160512831205123C0BAA2A8316851204
:10055000831285123C08023C031DB22A831609103F
:10056000831209103C08033C031DBA2A8316891024
:10057000831289108316851583128519C52A3A0DB1
:10058000BB00BB0DFC30BB05BA2A831605158312D0
:100590000519D32A3A0DF700F70DFC30F705770857
:1005A000013EBB00C52A8316851483128518E12AF3
:1005B0003A0DF700F70DFC30F7057708023EBB0057
:1005C000D32A8316051483120518EF2A3A0DF70073
:1005D000F70DFC30F7057708033EBB00E12ABA0AA5
:1005E000772A3B08F8008A150A1241280B08BA003E
:1005F0008B13831603178C170C1400000000831252
:100600000313BA1B8B1703170C087F3903194C2BE4
:100610000313BA0003170D080313BB0003170F08D9
:100620000313BC003A080C1E132B99003B08031758
:100630008D0003133C0803178F0003130B08BD0044
:100640008B13831603178C170C1400000000831201
:100650000313BD1B8B1703170C0D0E0D7F390319E8
:100660004C2B0313BA0003170D080313BB00031729
:100670000F080313BC003A080C1E3C2B99003B08E2
:1006800003178D0003133C0803178F008D0A03190D
:100690008F0A0313F62A031703130800A012200879
:1006A000831687008312871641300C1E552B990044
:1006B00054300C1E592B99000D300C1E5D2B9900E7
:1006C0000230BA00FA30BF00C620BA0B622B1830D5
:1006D00003178D0000308F000313F6220D300C1E1F
:1006E0006F2B99000230BA00FA30BF00C620BA0B57
:1006F000742B1B3003178D0000308F000313F6227C
:100700000D300C1E812B99000230BA00FA30BF0068
:10071000C620BA0B862B1E3003178D0000308F00C9
:100720000313F6220D300C1E932B99000230BA00F1
:10073000FA30BF00C620BA0B982B253003178D0066
:1007400000308F000313F6220D300C1EA52B9900EC
:100750000230BA00FA30BF00C620BA0BAA2B2A30EA
:1007600003178D0000308F000313F6220D300C1E8E
:10077000B72B99000230BA00FA30BF00C620BA0B7E
:10078000BC2B8A150A12052B103003178D00831617
:100790008C130C1483120C080313BA0011300317C6
:1007A0008D0083168C130C1483120C080313BB00EA
:1007B000123003178D0083168C130C1483120C084F
:1007C0000313BC00133003178D0083168C130C1415
:1007D00083120C080313BD00143003178D00831619
:1007E0008C130C1483120C080313BE00153003176E
:1007F0008D0083168C130C1483120C080313BF0096
:10080000163003178D0083168C130C1483120C08FA
:100810000313C000173003178D0083168C130C14BC
:1008200083120C080313C100183003178D008316C0
:100830008C130C1483120C080313C2001930031715
:100840008D0083168C130C1483120C080313C30041
:1008500041300C1E292C990054300C1E2D2C99006F
:1008600044300C1E312C99003A080C1E352C99008E
:100870003B080C1E392C99003C080C1E3D2C99009D
:100880003D080C1E412C99003E080C1E452C990079
:100890003F080C1E492C990040080C1E4D2C990055
:1008A00041080C1E512C990042080C1E552C990031
:1008B00043080C1E592C99003B300C1E5D2C9900EE
:1008C0000D300C1E612C99003C30BA00FA30BF008C
:1008D000C620BA0B662C41300C1E6C2C990054308B
:1008E0000C1E702C990048300C1E742C99000D3091
:1008F0000C1E782C9900A012200883168700831202
:1009000087121430BA00FA30BF00C620BA0B832C0D
:060910008A150A12082BF3
:1010000003081F398300813083169900A6309800A9
:10101000903083129800FF30A00083161F149F1495
:101020001F159F1107309C0083138312A101A20199
:10103000A301A401A501A601A701A801A901AA0174
:10104000AB01AC01AD01AE01AF01B001B101B20124
:10105000B301B401B501B601B7018A1199298A1506
:10106000333003178D0000308F008A1103131D22C7
:101070008A152012200883168700831207168A110A
:10108000732A8A157808B800380F4728A12938082C
:101090000C3C0319A12938080D3C0319A129380873
:1010A0000E3C0319A12938080F3C0319A12905306A
:1010B000BF008A11C6208A15380F5F28A129380879
:1010C0000C3C0319A12938080D3C0319A129380843
:1010D0000E3C0319A12938080F3C0319A129A108C6
:1010E000031DA12838088A1104208A15F800A600DB
:1010F0000630BE000230BF008A11DF218A15380891
:101100008A1104208A15BA00BD008A11F1218A15BE
:101110000230BA009630BF008A11C6208A15BA0B79
:101120008A280630BE000230BF008A11DF218A15EE
:101130003B3003178D0000308F008A1103131D22EE
:101140008A15210BD22838088A1104208A15F80044
:10115000A7000730BE000230BF008A11DF218A15C8
:1011600038088A1104208A15BA00BD008A11F121BD
:101170008A150230BA009630BF008A11C6208A153F
:10118000BA0BBB280730BE000230BF008A11DF2136
:101190008A153C3003178D0000308F008A1103132D
:1011A0001D228A152108023C031D052938088A11D1
:1011B00004208A15F800A8000830BE000230BF00E5
:1011C0008A11DF218A1538088A1104208A15BA008D
:1011D000BD008A11F1218A150230BA009630BF0095
:1011E0008A11C6208A15BA0BEE280830BE000230DC
:1011F000BF008A11DF218A153D3003178D000030B2
:101200008F008A1103131D228A152108033C031D38
:10121000382938088A1104208A15F800A9000930F5
:10122000BE000230BF008A11DF218A1538088A11FA
:1012300004208A15BA00BD008A11F1218A150230F6
:10124000BA009630BF008A11C6208A15BA0B212930
:101250000930BE000230BF008A11DF218A153E30FE
:1012600003178D0000308F008A1103131D228A1589
:101270002108043C031D6B2938088A1104208A15B3
:10128000F800AA000A30BE000230BF008A11DF2138
:101290008A1538088A1104208A15BA00BD008A11FF
:1012A000F1218A150230BA009630BF008A11C6209B
:1012B0008A15BA0B54290A30BE000230BF008A11C9
:1012C000DF218A153F3003178D0000308F008A110F
:1012D00003131D228A152108053C031DA029380887
:1012E0008A1104208A15F800AB000B30BE000230D2
:1012F000BF008A11DF218A1538088A1104208A1557
:10130000BA00BD008A11F1218A150230BA00963068
:10131000BF008A11C6208A15BA0B87290B30BE0080
:101320000230BF008A11DF218A15403003178D007B
:1013300000308F008A1103131D228A150130A3008B
:10134000A10A230B6D2A38080F3C031D6D2AA4083F
:10135000031D6D2A0530BF008A11C6208A15230B94
:101360006D2A38080F3C031D6D2AA408031D6D2A41
:1013700003178D0183168C130C1483120C080313AE
:101380002602031D352A013003178D0083168C13A6
:101390000C1483120C0803132702031D352A023094
:1013A00003178D0083168C130C1483120C0803137F
:1013B0002802031D352A033003178D0083168C1372
:1013C0000C1483120C0803132902031D352A043060
:1013D00003178D0083168C130C1483120C0803134F
:1013E0002A02031D352A053003178D0083168C133E
:1013F0000C1483120C0803132B02031D352A0C3026
:10140000BD008A11F1218A15413003178D0000308B
:101410008F008A1103131D228A150A30BE00023084
:10142000BF008A11DF218A15463003178D00003076
:101430008F008A1103131D228A15A011200883161C
:10144000870083128715A1010830BA00FA30BF0067
:101450008A11C6208A15BA0B262AA01120088316E5
:10146000870083128711A3016D2A0C30BD008A11F9
:10147000F1218A154B3003178D0000308F008A113F
:1014800003131D228A150130BE000230BF008A11ED
:10149000DF218A15523003178D0000308F008A112A
:1014A00003131D228A150830BA00FA30BF008A11D2
:1014B000C6208A15BA0B552A0C30BD008A11F121BD
:1014C0008A155B3003178D0000308F008A110313DB
:1014D0001D228A15A101A301A20A38080C3C031D94
:1014E000F72A0530BF008A11C6208A1538080C3C3F
:1014F000031DF72A210B8D2A0630BE000230BF00E3
:101500008A11DF218A15633003178D0000308F00A8
:101510008A1103131D228A15A1032108023C031D11
:10152000A22A0730BE000230BF008A11DF218A15CF
:10153000643003178D0000308F008A1103131D22C1
:101540008A15A1032108033C031DB72A0830BE00F9
:101550000230BF008A11DF218A15653003178D0024
:1015600000308F008A1103131D228A15A103210860
:10157000043C031DCC2A0930BE000230BF008A1192
:10158000DF218A15663003178D0000308F008A1125
:1015900003131D228A15A1032108053C031DE12A1E
:1015A0000A30BE000230BF008A11DF218A15673081
:1015B00003178D0000308F008A1103131D228A1536
:1015C000A1032108053C0318F72A0B30BE000230A6
:1015D000BF008A11DF218A15683003178D000030A3
:1015E0008F008A1103131D228A150530A1002208DD
:1015F000053C031D102BA0122008831687008312C0
:101600008716A101A3018A114E2B8A158A11C42BBA
:101610008A15A201A0122008831687008312871260
:1016200038080E3C031D502B0530BF008A11C62020
:101630008A1538080E3C031D502B201120088316F4
:101640008700831207150C30BD008A11F1218A151D
:10165000693003178D0000308F008A1103131D229B
:101660008A150830BA00FA30BF008A11C6208A15E0
:10167000BA0B332B20112008831687008312071121
:101680000C30BD008A11F1218A156F3003178D00CF
:1016900000308F008A1103131D228A15A101A301B6
:1016A00038080D3C031D742B0530BF008A11C6207D
:1016B0008A1538080D3C031D742BA1010130A400CC
:1016C0000C30BD008A11F1218A150130BE00BF0027
:1016D0008A11DF218A15773003178D0000308F00C3
:1016E0008A1103131D228A15230B272C240B272C68
:1016F00038080F3C031D272CA508031D272C053097
:10170000BF008A11C6208A15230B272C240B272CF7
:1017100038080F3C031D272CA508031D272C031791
:101720008D0183168C130C1483120C0803132602EC
:10173000031DFF2B013003178D0083168C130C142F
:1017400083120C0803132702031DFF2B023003171B
:101750008D0083168C130C1483120C0803132802BB
:10176000031DFF2B033003178D0083168C130C14FD
:1017700083120C0803132902031DFF2B04300317E7
:101780008D0083168C130C1483120C0803132A0289
:10179000031DFF2B053003178D0083168C130C14CB
:1017A00083120C0803132B02031DFF2B0C30BD000A
:1017B0008A11F1218A150130BE00BF008A11DF2194
:1017C0008A157D3003178D0000308F008A110313B6
:1017D0001D228A150130BE000230BF008A11DF21B0
:1017E0008A15843003178D0000308F008A1103138F
:1017F0001D228A150130A500A301A101272C0C3060
:10180000BD008A11F1218A15873003178D00003041
:101810008F008A1103131D228A150830BA00FA308E
:10182000BF008A11C6208A15BA0B0F2C0C30BD00E0
:101830008A11F1218A158E3003178D0000308F0038
:101840008A1103131D228A15A20AA301A101230BE9
:10185000632C250B632C38080F3C031D632C0530CB
:10186000BF008A11C6208A15230B632C250B632C1D
:1018700038080F3C031D632C0C30BD008A11F12188
:101880008A150130BE00BF008A11DF218A1595300C
:1018900003178D0000308F008A1103131D228A1553
:1018A0000130BE000230BF008A11DF218A159C3052
:1018B00003178D0000308F008A1103131D228A1533
:1018C000A50AA301A101250B732C230B732C260859
:1018D000AC002708AD002808AE002908AF002A0890
:1018E000B0002B08B1002508023C031D852C230BFA
:1018F000852C2608B2002708B3002808B400290860
:10190000B5002A08B6002B08B7002508023C031DC5
:10191000512D230B512D38080F3C031D512D05303F
:10192000BF008A11C6208A152508023C031D512DCF
:10193000230B512D38080F3C031D512D32082C026A
:10194000031D172D33082D02031D172D34082E02F9
:10195000031D172D35082F02031D172D36083002E1
:10196000031D172D37083102031D172D0C30BD0044
:101970008A11F1218A159F3003178D0000308F00E6
:101980008A1103131D228A150730BE000230BF00E2
:101990008A11DF218A15A63003178D0000308F00D1
:1019A0008A1103131D228A15B9013908053C031C4D
:1019B000FA2C2C303907840083130008BA000B0876
:1019C000F7008B13390803178D0003133A08031728
:1019D0008C0083168C130C1555308D00AA308D00A9
:1019E0008C148C18F12C0C117708831203138B04C0
:1019F000B90AD52C0830BA00FA30BF008A11C620C7
:101A00008A15BA0BFC2C0C30BD008A11F1218A1505
:101A1000AC3003178D0000308F008A1103131D2294
:101A20008A15A101A301A401A501A201512D0C3029
:101A3000BD008A11F1218A15B33003178D000030E3
:101A40008F008A1103131D228A150930BE0002304F
:101A5000BF008A11DF218A15BA3003178D000030CC
:101A60008F008A1103131D228A150830BA00FA303C
:101A7000BF008A11C6208A15BA0B372D0C30BD0065
:101A80008A11F1218A15BF3003178D0000308F00B5
:101A90008A1103131D228A15A101A301A401A50126
:061AA000A20139286300D9
:02400E00323F3F
:00000001FF
;PIC16F877A
;CRC=460F  CREATED="22-May-20 16:19"
